{
    "_format": "hh-sol-artifact-1",
    "contractName": "BonkBag",
    "sourceName": "contracts/BonkBag.sol",
    "abi": [
        {
            "inputs": [],
            "stateMutability": "nonpayable",
            "type": "constructor"
        },
        {
            "anonymous": false,
            "inputs": [
                {
                    "indexed": true,
                    "internalType": "address",
                    "name": "owner",
                    "type": "address"
                },
                {
                    "indexed": true,
                    "internalType": "address",
                    "name": "approved",
                    "type": "address"
                },
                {
                    "indexed": true,
                    "internalType": "uint256",
                    "name": "tokenId",
                    "type": "uint256"
                }
            ],
            "name": "Approval",
            "type": "event"
        },
        {
            "anonymous": false,
            "inputs": [
                {
                    "indexed": true,
                    "internalType": "address",
                    "name": "owner",
                    "type": "address"
                },
                {
                    "indexed": true,
                    "internalType": "address",
                    "name": "operator",
                    "type": "address"
                },
                {
                    "indexed": false,
                    "internalType": "bool",
                    "name": "approved",
                    "type": "bool"
                }
            ],
            "name": "ApprovalForAll",
            "type": "event"
        },
        {
            "anonymous": false,
            "inputs": [
                {
                    "indexed": false,
                    "internalType": "address",
                    "name": "sender",
                    "type": "address"
                },
                {
                    "indexed": false,
                    "internalType": "uint256",
                    "name": "tokenId",
                    "type": "uint256"
                }
            ],
            "name": "NewBonkBagMinted",
            "type": "event"
        },
        {
            "anonymous": false,
            "inputs": [
                {
                    "indexed": true,
                    "internalType": "address",
                    "name": "from",
                    "type": "address"
                },
                {
                    "indexed": true,
                    "internalType": "address",
                    "name": "to",
                    "type": "address"
                },
                {
                    "indexed": true,
                    "internalType": "uint256",
                    "name": "tokenId",
                    "type": "uint256"
                }
            ],
            "name": "Transfer",
            "type": "event"
        },
        {
            "inputs": [
                {
                    "internalType": "address",
                    "name": "to",
                    "type": "address"
                },
                {
                    "internalType": "uint256",
                    "name": "tokenId",
                    "type": "uint256"
                }
            ],
            "name": "approve",
            "outputs": [],
            "stateMutability": "nonpayable",
            "type": "function"
        },
        {
            "inputs": [
                {
                    "internalType": "address",
                    "name": "owner",
                    "type": "address"
                }
            ],
            "name": "balanceOf",
            "outputs": [
                {
                    "internalType": "uint256",
                    "name": "",
                    "type": "uint256"
                }
            ],
            "stateMutability": "view",
            "type": "function"
        },
        {
            "inputs": [
                {
                    "internalType": "uint256",
                    "name": "tokenId",
                    "type": "uint256"
                }
            ],
            "name": "getApproved",
            "outputs": [
                {
                    "internalType": "address",
                    "name": "",
                    "type": "address"
                }
            ],
            "stateMutability": "view",
            "type": "function"
        },
        {
            "inputs": [
                {
                    "internalType": "address",
                    "name": "owner",
                    "type": "address"
                },
                {
                    "internalType": "address",
                    "name": "operator",
                    "type": "address"
                }
            ],
            "name": "isApprovedForAll",
            "outputs": [
                {
                    "internalType": "bool",
                    "name": "",
                    "type": "bool"
                }
            ],
            "stateMutability": "view",
            "type": "function"
        },
        {
            "inputs": [],
            "name": "makeABonkBagNFT",
            "outputs": [],
            "stateMutability": "nonpayable",
            "type": "function"
        },
        {
            "inputs": [],
            "name": "name",
            "outputs": [
                {
                    "internalType": "string",
                    "name": "",
                    "type": "string"
                }
            ],
            "stateMutability": "view",
            "type": "function"
        },
        {
            "inputs": [
                {
                    "internalType": "uint256",
                    "name": "tokenId",
                    "type": "uint256"
                }
            ],
            "name": "ownerOf",
            "outputs": [
                {
                    "internalType": "address",
                    "name": "",
                    "type": "address"
                }
            ],
            "stateMutability": "view",
            "type": "function"
        },
        {
            "inputs": [
                {
                    "internalType": "uint256",
                    "name": "tokenId",
                    "type": "uint256"
                }
            ],
            "name": "pickRandomColor",
            "outputs": [
                {
                    "internalType": "string",
                    "name": "",
                    "type": "string"
                }
            ],
            "stateMutability": "view",
            "type": "function"
        },
        {
            "inputs": [
                {
                    "internalType": "uint256",
                    "name": "tokenId",
                    "type": "uint256"
                }
            ],
            "name": "pickRandomFirstWord",
            "outputs": [
                {
                    "internalType": "string",
                    "name": "",
                    "type": "string"
                }
            ],
            "stateMutability": "view",
            "type": "function"
        },
        {
            "inputs": [
                {
                    "internalType": "uint256",
                    "name": "tokenId",
                    "type": "uint256"
                }
            ],
            "name": "pickRandomSecondWord",
            "outputs": [
                {
                    "internalType": "string",
                    "name": "",
                    "type": "string"
                }
            ],
            "stateMutability": "view",
            "type": "function"
        },
        {
            "inputs": [
                {
                    "internalType": "uint256",
                    "name": "tokenId",
                    "type": "uint256"
                }
            ],
            "name": "pickRandomThirdWord",
            "outputs": [
                {
                    "internalType": "string",
                    "name": "",
                    "type": "string"
                }
            ],
            "stateMutability": "view",
            "type": "function"
        },
        {
            "inputs": [
                {
                    "internalType": "address",
                    "name": "from",
                    "type": "address"
                },
                {
                    "internalType": "address",
                    "name": "to",
                    "type": "address"
                },
                {
                    "internalType": "uint256",
                    "name": "tokenId",
                    "type": "uint256"
                }
            ],
            "name": "safeTransferFrom",
            "outputs": [],
            "stateMutability": "nonpayable",
            "type": "function"
        },
        {
            "inputs": [
                {
                    "internalType": "address",
                    "name": "from",
                    "type": "address"
                },
                {
                    "internalType": "address",
                    "name": "to",
                    "type": "address"
                },
                {
                    "internalType": "uint256",
                    "name": "tokenId",
                    "type": "uint256"
                },
                {
                    "internalType": "bytes",
                    "name": "_data",
                    "type": "bytes"
                }
            ],
            "name": "safeTransferFrom",
            "outputs": [],
            "stateMutability": "nonpayable",
            "type": "function"
        },
        {
            "inputs": [
                {
                    "internalType": "address",
                    "name": "operator",
                    "type": "address"
                },
                {
                    "internalType": "bool",
                    "name": "approved",
                    "type": "bool"
                }
            ],
            "name": "setApprovalForAll",
            "outputs": [],
            "stateMutability": "nonpayable",
            "type": "function"
        },
        {
            "inputs": [
                {
                    "internalType": "bytes4",
                    "name": "interfaceId",
                    "type": "bytes4"
                }
            ],
            "name": "supportsInterface",
            "outputs": [
                {
                    "internalType": "bool",
                    "name": "",
                    "type": "bool"
                }
            ],
            "stateMutability": "view",
            "type": "function"
        },
        {
            "inputs": [],
            "name": "symbol",
            "outputs": [
                {
                    "internalType": "string",
                    "name": "",
                    "type": "string"
                }
            ],
            "stateMutability": "view",
            "type": "function"
        },
        {
            "inputs": [
                {
                    "internalType": "uint256",
                    "name": "tokenId",
                    "type": "uint256"
                }
            ],
            "name": "tokenURI",
            "outputs": [
                {
                    "internalType": "string",
                    "name": "",
                    "type": "string"
                }
            ],
            "stateMutability": "view",
            "type": "function"
        },
        {
            "inputs": [
                {
                    "internalType": "address",
                    "name": "from",
                    "type": "address"
                },
                {
                    "internalType": "address",
                    "name": "to",
                    "type": "address"
                },
                {
                    "internalType": "uint256",
                    "name": "tokenId",
                    "type": "uint256"
                }
            ],
            "name": "transferFrom",
            "outputs": [],
            "stateMutability": "nonpayable",
            "type": "function"
        }
    ],
    "bytecode": "0x608060405260405180610100016040528060d3815260200162004be760d39139600890805190602001906200003692919062000e2d565b5060405180608001604052806056815260200162004cba60569139600990805190602001906200006892919062000e2d565b50604051806101c001604052806040518060400160405280600681526020017f536c6f6f7079000000000000000000000000000000000000000000000000000081525081526020016040518060400160405280600581526020017f426f78657900000000000000000000000000000000000000000000000000000081525081526020016040518060400160405280600581526020017f466c6f6e6b00000000000000000000000000000000000000000000000000000081525081526020016040518060400160405280600981526020017f4e6f6b6b61686f636b000000000000000000000000000000000000000000000081525081526020016040518060400160405280600481526020017f486f6d620000000000000000000000000000000000000000000000000000000081525081526020016040518060400160405280600581526020017f536c65656d00000000000000000000000000000000000000000000000000000081525081526020016040518060400160405280600c81526020017f4b72617463684d7572646579000000000000000000000000000000000000000081525081526020016040518060400160405280600481526020017f447572740000000000000000000000000000000000000000000000000000000081525081526020016040518060400160405280600981526020017f54686f726e66697265000000000000000000000000000000000000000000000081525081526020016040518060400160405280600781526020017f416d617a6572790000000000000000000000000000000000000000000000000081525081526020016040518060400160405280600781526020017f43616d626f696c0000000000000000000000000000000000000000000000000081525081526020016040518060400160405280600a81526020017f47726170686963706f700000000000000000000000000000000000000000000081525081526020016040518060400160405280600a81526020017f426c6f6f6463686169720000000000000000000000000000000000000000000081525081526020016040518060400160405280600881526020017f4372616e626c6f78000000000000000000000000000000000000000000000000815250815250600a90600e620003bf92919062000ebe565b50604051806101e001604052806040518060400160405280600781526020017f536c6565706c790000000000000000000000000000000000000000000000000081525081526020016040518060400160405280600781526020017f536e61636b65790000000000000000000000000000000000000000000000000081525081526020016040518060400160405280600481526020017f446f67650000000000000000000000000000000000000000000000000000000081525081526020016040518060400160405280600581526020017f47726f6f6600000000000000000000000000000000000000000000000000000081525081526020016040518060400160405280600481526020017f4472696d0000000000000000000000000000000000000000000000000000000081525081526020016040518060400160405280600481526020017f42726f7a0000000000000000000000000000000000000000000000000000000081525081526020016040518060400160405280600a81526020017f436f7563687468756d620000000000000000000000000000000000000000000081525081526020016040518060400160405280600981526020017f4f63746f6c6c616d61000000000000000000000000000000000000000000000081525081526020016040518060400160405280600481526020017f5a6f72640000000000000000000000000000000000000000000000000000000081525081526020016040518060400160405280600581526020017f486168737400000000000000000000000000000000000000000000000000000081525081526020016040518060400160405280600481526020017f4c61726d0000000000000000000000000000000000000000000000000000000081525081526020016040518060400160405280600c81526020017f506f6f6c696f626974657573000000000000000000000000000000000000000081525081526020016040518060400160405280600981526020017f4d757368626c6f6f6d000000000000000000000000000000000000000000000081525081526020016040518060400160405280600981526020017f4c616c6174686f6e6b000000000000000000000000000000000000000000000081525081526020016040518060400160405280600581526020017f4272756c6c000000000000000000000000000000000000000000000000000000815250815250600b90600f6200075192919062000f25565b50604051806101e001604052806040518060400160405280600481526020017f536f75700000000000000000000000000000000000000000000000000000000081525081526020016040518060400160405280600581526020017f466c6f6f7000000000000000000000000000000000000000000000000000000081525081526020016040518060400160405280600681526020017f4a616d626c65000000000000000000000000000000000000000000000000000081525081526020016040518060400160405280600381526020017f486170000000000000000000000000000000000000000000000000000000000081525081526020016040518060400160405280600581526020017f467275737400000000000000000000000000000000000000000000000000000081525081526020016040518060400160405280600581526020017f4c6f6d6d7900000000000000000000000000000000000000000000000000000081525081526020016040518060400160405280600b81526020017f576f6c66796f706f6c697300000000000000000000000000000000000000000081525081526020016040518060400160405280600881526020017f4d61696c6368657a00000000000000000000000000000000000000000000000081525081526020016040518060400160405280600581526020017f57656c6b7900000000000000000000000000000000000000000000000000000081525081526020016040518060400160405280600a81526020017f4772616e646572697a650000000000000000000000000000000000000000000081525081526020016040518060400160405280600b81526020017f42726f6e746f6368616c6b00000000000000000000000000000000000000000081525081526020016040518060400160405280600681526020017f4e6963657973000000000000000000000000000000000000000000000000000081525081526020016040518060400160405280600481526020017f4d756e730000000000000000000000000000000000000000000000000000000081525081526020016040518060400160405280600c81526020017f426c65737365727966697368000000000000000000000000000000000000000081525081526020016040518060400160405280600a81526020017f536973736170686f6e6500000000000000000000000000000000000000000000815250815250600c90600f62000ae392919062000f25565b506040518060c001604052806040518060400160405280600781526020017f236666643164630000000000000000000000000000000000000000000000000081525081526020016040518060400160405280600781526020017f234231413243410000000000000000000000000000000000000000000000000081525081526020016040518060400160405280600781526020017f234539454336420000000000000000000000000000000000000000000000000081525081526020016040518060400160405280600781526020017f234546424537440000000000000000000000000000000000000000000000000081525081526020016040518060400160405280600781526020017f233737646437370000000000000000000000000000000000000000000000000081525081526020016040518060400160405280600781526020017f2338424433453600000000000000000000000000000000000000000000000000815250815250600d90600662000c6192919062000f8c565b5034801562000c6f57600080fd5b506040518060400160405280600a81526020017f426f6e6b4261674e4654000000000000000000000000000000000000000000008152506040518060400160405280600481526020017f424f4e4b00000000000000000000000000000000000000000000000000000000815250816000908051906020019062000cf492919062000e2d565b50806001908051906020019062000d0d92919062000e2d565b50505062000d5b6040518060400160405280601e81526020017f54686973206973206d79204e465420636f6e74726163742e20576f616821000081525062000d6160201b620013951760201c565b620011ad565b62000e018160405160240162000d789190620010c1565b6040516020818303038152906040527f41304fac000000000000000000000000000000000000000000000000000000007bffffffffffffffffffffffffffffffffffffffffffffffffffffffff19166020820180517bffffffffffffffffffffffffffffffffffffffffffffffffffffffff838183161783525050505062000e0460201b60201c565b50565b60008151905060006a636f6e736f6c652e6c6f679050602083016000808483855afa5050505050565b82805462000e3b9062001137565b90600052602060002090601f01602090048101928262000e5f576000855562000eab565b82601f1062000e7a57805160ff191683800117855562000eab565b8280016001018555821562000eab579182015b8281111562000eaa57825182559160200191906001019062000e8d565b5b50905062000eba919062000ff3565b5090565b82805482825590600052602060002090810192821562000f12579160200282015b8281111562000f1157825182908051906020019062000f0092919062000e2d565b509160200191906001019062000edf565b5b50905062000f21919062001012565b5090565b82805482825590600052602060002090810192821562000f79579160200282015b8281111562000f7857825182908051906020019062000f6792919062000e2d565b509160200191906001019062000f46565b5b50905062000f88919062001012565b5090565b82805482825590600052602060002090810192821562000fe0579160200282015b8281111562000fdf57825182908051906020019062000fce92919062000e2d565b509160200191906001019062000fad565b5b50905062000fef919062001012565b5090565b5b808211156200100e57600081600090555060010162000ff4565b5090565b5b808211156200103657600081816200102c91906200103a565b5060010162001013565b5090565b508054620010489062001137565b6000825580601f106200105c57506200107d565b601f0160209004906000526020600020908101906200107c919062000ff3565b5b50565b60006200108d82620010e5565b620010998185620010f0565b9350620010ab81856020860162001101565b620010b6816200119c565b840191505092915050565b60006020820190508181036000830152620010dd818462001080565b905092915050565b600081519050919050565b600082825260208201905092915050565b60005b838110156200112157808201518184015260208101905062001104565b8381111562001131576000848401525b50505050565b600060028204905060018216806200115057607f821691505b602082108114156200116757620011666200116d565b5b50919050565b7f4e487b7100000000000000000000000000000000000000000000000000000000600052602260045260246000fd5b6000601f19601f8301169050919050565b613a2a80620011bd6000396000f3fe608060405234801561001057600080fd5b50600436106101165760003560e01c806370a08231116100a2578063b88d4fde11610071578063b88d4fde14610317578063c575757a14610333578063c87b56dd14610363578063e4876c9314610393578063e985e9c51461039d57610116565b806370a082311461027d57806395d89b41146102ad578063a22cb465146102cb578063b187301f146102e757610116565b806323b872dd116100e957806323b872dd146101b55780632de38d68146101d157806342842e0e14610201578063514dc8c61461021d5780636352211e1461024d57610116565b806301ffc9a71461011b57806306fdde031461014b578063081812fc14610169578063095ea7b314610199575b600080fd5b61013560048036038101906101309190612628565b6103cd565b60405161014291906132a0565b60405180910390f35b6101536104af565b60405161016091906132bb565b60405180910390f35b610183600480360381019061017e919061267a565b610541565b6040516101909190613210565b60405180910390f35b6101b360048036038101906101ae91906125ec565b6105c6565b005b6101cf60048036038101906101ca91906124e6565b6106de565b005b6101eb60048036038101906101e6919061267a565b61073e565b6040516101f891906132bb565b60405180910390f35b61021b600480360381019061021691906124e6565b61085c565b005b6102376004803603810190610232919061267a565b61087c565b60405161024491906132bb565b60405180910390f35b6102676004803603810190610262919061267a565b61099a565b6040516102749190613210565b60405180910390f35b61029760048036038101906102929190612481565b610a4c565b6040516102a4919061351b565b60405180910390f35b6102b5610b04565b6040516102c291906132bb565b60405180910390f35b6102e560048036038101906102e091906125b0565b610b96565b005b61030160048036038101906102fc919061267a565b610d17565b60405161030e91906132bb565b60405180910390f35b610331600480360381019061032c9190612535565b610e35565b005b61034d6004803603810190610348919061267a565b610e97565b60405161035a91906132bb565b60405180910390f35b61037d6004803603810190610378919061267a565b610fb5565b60405161038a91906132bb565b60405180910390f35b61039b611107565b005b6103b760048036038101906103b291906124aa565b611301565b6040516103c491906132a0565b60405180910390f35b60007f80ac58cd000000000000000000000000000000000000000000000000000000007bffffffffffffffffffffffffffffffffffffffffffffffffffffffff1916827bffffffffffffffffffffffffffffffffffffffffffffffffffffffff1916148061049857507f5b5e139f000000000000000000000000000000000000000000000000000000007bffffffffffffffffffffffffffffffffffffffffffffffffffffffff1916827bffffffffffffffffffffffffffffffffffffffffffffffffffffffff1916145b806104a857506104a78261142e565b5b9050919050565b6060600080546104be906137ba565b80601f01602080910402602001604051908101604052809291908181526020018280546104ea906137ba565b80156105375780601f1061050c57610100808354040283529160200191610537565b820191906000526020600020905b81548152906001019060200180831161051a57829003601f168201915b5050505050905090565b600061054c82611498565b61058b576040517f08c379a00000000000000000000000000000000000000000000000000000000081526004016105829061347b565b60405180910390fd5b6004600083815260200190815260200160002060009054906101000a900473ffffffffffffffffffffffffffffffffffffffff169050919050565b60006105d18261099a565b90508073ffffffffffffffffffffffffffffffffffffffff168373ffffffffffffffffffffffffffffffffffffffff161415610642576040517f08c379a0000000000000000000000000000000000000000000000000000000008152600401610639906134db565b60405180910390fd5b8073ffffffffffffffffffffffffffffffffffffffff16610661611504565b73ffffffffffffffffffffffffffffffffffffffff161480610690575061068f8161068a611504565b611301565b5b6106cf576040517f08c379a00000000000000000000000000000000000000000000000000000000081526004016106c6906133bb565b60405180910390fd5b6106d9838361150c565b505050565b6106ef6106e9611504565b826115c5565b61072e576040517f08c379a0000000000000000000000000000000000000000000000000000000008152600401610725906134fb565b60405180910390fd5b6107398383836116a3565b505050565b6060600061077261074e846118ff565b60405160200161075e91906131aa565b604051602081830303815290604052611aac565b9050600a80549050816107859190613835565b9050600a81815481106107c1577f4e487b7100000000000000000000000000000000000000000000000000000000600052603260045260246000fd5b9060005260206000200180546107d6906137ba565b80601f0160208091040260200160405190810160405280929190818152602001828054610802906137ba565b801561084f5780601f106108245761010080835404028352916020019161084f565b820191906000526020600020905b81548152906001019060200180831161083257829003601f168201915b5050505050915050919050565b61087783838360405180602001604052806000815250610e35565b505050565b606060006108b061088c846118ff565b60405160200161089c91906131ee565b604051602081830303815290604052611aac565b9050600d80549050816108c39190613835565b9050600d81815481106108ff577f4e487b7100000000000000000000000000000000000000000000000000000000600052603260045260246000fd5b906000526020600020018054610914906137ba565b80601f0160208091040260200160405190810160405280929190818152602001828054610940906137ba565b801561098d5780601f106109625761010080835404028352916020019161098d565b820191906000526020600020905b81548152906001019060200180831161097057829003601f168201915b5050505050915050919050565b6000806002600084815260200190815260200160002060009054906101000a900473ffffffffffffffffffffffffffffffffffffffff169050600073ffffffffffffffffffffffffffffffffffffffff168173ffffffffffffffffffffffffffffffffffffffff161415610a43576040517f08c379a0000000000000000000000000000000000000000000000000000000008152600401610a3a906133fb565b60405180910390fd5b80915050919050565b60008073ffffffffffffffffffffffffffffffffffffffff168273ffffffffffffffffffffffffffffffffffffffff161415610abd576040517f08c379a0000000000000000000000000000000000000000000000000000000008152600401610ab4906133db565b60405180910390fd5b600360008373ffffffffffffffffffffffffffffffffffffffff1673ffffffffffffffffffffffffffffffffffffffff168152602001908152602001600020549050919050565b606060018054610b13906137ba565b80601f0160208091040260200160405190810160405280929190818152602001828054610b3f906137ba565b8015610b8c5780601f10610b6157610100808354040283529160200191610b8c565b820191906000526020600020905b815481529060010190602001808311610b6f57829003601f168201915b5050505050905090565b610b9e611504565b73ffffffffffffffffffffffffffffffffffffffff168273ffffffffffffffffffffffffffffffffffffffff161415610c0c576040517f08c379a0000000000000000000000000000000000000000000000000000000008152600401610c039061337b565b60405180910390fd5b8060056000610c19611504565b73ffffffffffffffffffffffffffffffffffffffff1673ffffffffffffffffffffffffffffffffffffffff16815260200190815260200160002060008473ffffffffffffffffffffffffffffffffffffffff1673ffffffffffffffffffffffffffffffffffffffff16815260200190815260200160002060006101000a81548160ff0219169083151502179055508173ffffffffffffffffffffffffffffffffffffffff16610cc6611504565b73ffffffffffffffffffffffffffffffffffffffff167f17307eab39ab6107e8899845ad3d59bd9653f200f220920489ca2b5937696c3183604051610d0b91906132a0565b60405180910390a35050565b60606000610d4b610d27846118ff565b604051602001610d379190613143565b604051602081830303815290604052611aac565b9050600b8054905081610d5e9190613835565b9050600b8181548110610d9a577f4e487b7100000000000000000000000000000000000000000000000000000000600052603260045260246000fd5b906000526020600020018054610daf906137ba565b80601f0160208091040260200160405190810160405280929190818152602001828054610ddb906137ba565b8015610e285780601f10610dfd57610100808354040283529160200191610e28565b820191906000526020600020905b815481529060010190602001808311610e0b57829003601f168201915b5050505050915050919050565b610e46610e40611504565b836115c5565b610e85576040517f08c379a0000000000000000000000000000000000000000000000000000000008152600401610e7c906134fb565b60405180910390fd5b610e9184848484611adf565b50505050565b60606000610ecb610ea7846118ff565b604051602001610eb79190613121565b604051602081830303815290604052611aac565b9050600c8054905081610ede9190613835565b9050600c8181548110610f1a577f4e487b7100000000000000000000000000000000000000000000000000000000600052603260045260246000fd5b906000526020600020018054610f2f906137ba565b80601f0160208091040260200160405190810160405280929190818152602001828054610f5b906137ba565b8015610fa85780601f10610f7d57610100808354040283529160200191610fa8565b820191906000526020600020905b815481529060010190602001808311610f8b57829003601f168201915b5050505050915050919050565b6060610fc082611498565b610fff576040517f08c379a0000000000000000000000000000000000000000000000000000000008152600401610ff69061345b565b60405180910390fd5b600060066000848152602001908152602001600020805461101f906137ba565b80601f016020809104026020016040519081016040528092919081815260200182805461104b906137ba565b80156110985780601f1061106d57610100808354040283529160200191611098565b820191906000526020600020905b81548152906001019060200180831161107b57829003601f168201915b5050505050905060006110a9611b3b565b90506000815114156110bf578192505050611102565b6000825111156110f45780826040516020016110dc929190613083565b60405160208183030381529060405292505050611102565b6110fd84611b52565b925050505b919050565b60006111136007611bf9565b905060006111208261073e565b9050600061112d83610d17565b9050600061113a84610e97565b90506000838383604051602001611153939291906130a7565b6040516020818303038152906040529050600061116f8661087c565b9050600060088260098560405160200161118c94939291906130d8565b604051602081830303815290604052905060006111d1846111ac84611c07565b6040516020016111bd929190613165565b604051602081830303815290604052611c07565b90506000816040516020016111e691906131cc565b60405160208183030381529060405290506112356040518060400160405280601581526020017f0a2d2d2d2d2d2d2d2d2d2d2d2d2d2d2d2d2d2d2d2d0000000000000000000000815250611395565b61123e81611395565b61127c6040518060400160405280601581526020017f2d2d2d2d2d2d2d2d2d2d2d2d2d2d2d2d2d2d2d2d0a0000000000000000000000815250611395565b611286338a611dc5565b6112908982611de3565b61129a6007611e57565b6112bd604051806060016040528060258152602001613990602591398a33611e6d565b7fcd6d6e7ff4c723efcb4c7221a21ef58e20ca13abf5406f98d387ff7cdda09e65338a6040516112ee929190613277565b60405180910390a1505050505050505050565b6000600560008473ffffffffffffffffffffffffffffffffffffffff1673ffffffffffffffffffffffffffffffffffffffff16815260200190815260200160002060008373ffffffffffffffffffffffffffffffffffffffff1673ffffffffffffffffffffffffffffffffffffffff16815260200190815260200160002060009054906101000a900460ff16905092915050565b61142b816040516024016113a991906132bb565b6040516020818303038152906040527f41304fac000000000000000000000000000000000000000000000000000000007bffffffffffffffffffffffffffffffffffffffffffffffffffffffff19166020820180517bffffffffffffffffffffffffffffffffffffffffffffffffffffffff8381831617835250505050611f0c565b50565b60007f01ffc9a7000000000000000000000000000000000000000000000000000000007bffffffffffffffffffffffffffffffffffffffffffffffffffffffff1916827bffffffffffffffffffffffffffffffffffffffffffffffffffffffff1916149050919050565b60008073ffffffffffffffffffffffffffffffffffffffff166002600084815260200190815260200160002060009054906101000a900473ffffffffffffffffffffffffffffffffffffffff1673ffffffffffffffffffffffffffffffffffffffff1614159050919050565b600033905090565b816004600083815260200190815260200160002060006101000a81548173ffffffffffffffffffffffffffffffffffffffff021916908373ffffffffffffffffffffffffffffffffffffffff160217905550808273ffffffffffffffffffffffffffffffffffffffff1661157f8361099a565b73ffffffffffffffffffffffffffffffffffffffff167f8c5be1e5ebec7d5bd14f71427d1e84f3dd0314c0f7b2291e5b200ac8c7c3b92560405160405180910390a45050565b60006115d082611498565b61160f576040517f08c379a00000000000000000000000000000000000000000000000000000000081526004016116069061339b565b60405180910390fd5b600061161a8361099a565b90508073ffffffffffffffffffffffffffffffffffffffff168473ffffffffffffffffffffffffffffffffffffffff16148061168957508373ffffffffffffffffffffffffffffffffffffffff1661167184610541565b73ffffffffffffffffffffffffffffffffffffffff16145b8061169a57506116998185611301565b5b91505092915050565b8273ffffffffffffffffffffffffffffffffffffffff166116c38261099a565b73ffffffffffffffffffffffffffffffffffffffff1614611719576040517f08c379a00000000000000000000000000000000000000000000000000000000081526004016117109061349b565b60405180910390fd5b600073ffffffffffffffffffffffffffffffffffffffff168273ffffffffffffffffffffffffffffffffffffffff161415611789576040517f08c379a00000000000000000000000000000000000000000000000000000000081526004016117809061335b565b60405180910390fd5b611794838383611f35565b61179f60008261150c565b6001600360008573ffffffffffffffffffffffffffffffffffffffff1673ffffffffffffffffffffffffffffffffffffffff16815260200190815260200160002060008282546117ef91906136d0565b925050819055506001600360008473ffffffffffffffffffffffffffffffffffffffff1673ffffffffffffffffffffffffffffffffffffffff168152602001908152602001600020600082825461184691906135ef565b92505081905550816002600083815260200190815260200160002060006101000a81548173ffffffffffffffffffffffffffffffffffffffff021916908373ffffffffffffffffffffffffffffffffffffffff160217905550808273ffffffffffffffffffffffffffffffffffffffff168473ffffffffffffffffffffffffffffffffffffffff167fddf252ad1be2c89b69c2b068fc378daa952ba7f163c4a11628f55a4df523b3ef60405160405180910390a4505050565b60606000821415611947576040518060400160405280600181526020017f30000000000000000000000000000000000000000000000000000000000000008152509050611aa7565b600082905060005b60008214611979578080611962906137ec565b915050600a826119729190613645565b915061194f565b60008167ffffffffffffffff8111156119bb577f4e487b7100000000000000000000000000000000000000000000000000000000600052604160045260246000fd5b6040519080825280601f01601f1916602001820160405280156119ed5781602001600182028036833780820191505090505b5090505b60008514611aa057600182611a0691906136d0565b9150600a85611a159190613835565b6030611a2191906135ef565b60f81b818381518110611a5d577f4e487b7100000000000000000000000000000000000000000000000000000000600052603260045260246000fd5b60200101907effffffffffffffffffffffffffffffffffffffffffffffffffffffffffffff1916908160001a905350600a85611a999190613645565b94506119f1565b8093505050505b919050565b600081604051602001611abf919061306c565b6040516020818303038152906040528051906020012060001c9050919050565b611aea8484846116a3565b611af684848484611f3a565b611b35576040517f08c379a0000000000000000000000000000000000000000000000000000000008152600401611b2c9061331b565b60405180910390fd5b50505050565b606060405180602001604052806000815250905090565b6060611b5d82611498565b611b9c576040517f08c379a0000000000000000000000000000000000000000000000000000000008152600401611b93906134bb565b60405180910390fd5b6000611ba6611b3b565b90506000815111611bc65760405180602001604052806000815250611bf1565b80611bd0846118ff565b604051602001611be1929190613083565b6040516020818303038152906040525b915050919050565b600081600001549050919050565b60606000825190506000811415611c305760405180602001604052806000815250915050611dc0565b60006003600283611c4191906135ef565b611c4b9190613645565b6004611c579190613676565b90506000602082611c6891906135ef565b67ffffffffffffffff811115611ca7577f4e487b7100000000000000000000000000000000000000000000000000000000600052604160045260246000fd5b6040519080825280601f01601f191660200182016040528015611cd95781602001600182028036833780820191505090505b50905060006040518060600160405280604081526020016139b5604091399050600181016020830160005b86811015611d7d5760038101905062ffffff818a015116603f8160121c168401518060081b905060ff603f83600c1c1686015116810190508060081b905060ff603f8360061c1686015116810190508060081b905060ff603f831686015116810190508060e01b90508084526004840193505050611d04565b506003860660018114611d975760028114611da757611db2565b613d3d60f01b6002830352611db2565b603d60f81b60018303525b508484525050819450505050505b919050565b611ddf8282604051806020016040528060008152506120d1565b5050565b611dec82611498565b611e2b576040517f08c379a0000000000000000000000000000000000000000000000000000000008152600401611e229061341b565b60405180910390fd5b80600660008481526020019081526020016000209080519060200190611e5292919061230d565b505050565b6001816000016000828254019250508190555050565b611f07838383604051602401611e85939291906132dd565b6040516020818303038152906040527fe3849f79000000000000000000000000000000000000000000000000000000007bffffffffffffffffffffffffffffffffffffffffffffffffffffffff19166020820180517bffffffffffffffffffffffffffffffffffffffffffffffffffffffff8381831617835250505050611f0c565b505050565b60008151905060006a636f6e736f6c652e6c6f679050602083016000808483855afa5050505050565b505050565b6000611f5b8473ffffffffffffffffffffffffffffffffffffffff1661212c565b156120c4578373ffffffffffffffffffffffffffffffffffffffff1663150b7a02611f84611504565b8786866040518563ffffffff1660e01b8152600401611fa6949392919061322b565b602060405180830381600087803b158015611fc057600080fd5b505af1925050508015611ff157506040513d601f19601f82011682018060405250810190611fee9190612651565b60015b612074573d8060008114612021576040519150601f19603f3d011682016040523d82523d6000602084013e612026565b606091505b5060008151141561206c576040517f08c379a00000000000000000000000000000000000000000000000000000000081526004016120639061331b565b60405180910390fd5b805181602001fd5b63150b7a0260e01b7bffffffffffffffffffffffffffffffffffffffffffffffffffffffff1916817bffffffffffffffffffffffffffffffffffffffffffffffffffffffff1916149150506120c9565b600190505b949350505050565b6120db838361213f565b6120e86000848484611f3a565b612127576040517f08c379a000000000000000000000000000000000000000000000000000000000815260040161211e9061331b565b60405180910390fd5b505050565b600080823b905060008111915050919050565b600073ffffffffffffffffffffffffffffffffffffffff168273ffffffffffffffffffffffffffffffffffffffff1614156121af576040517f08c379a00000000000000000000000000000000000000000000000000000000081526004016121a69061343b565b60405180910390fd5b6121b881611498565b156121f8576040517f08c379a00000000000000000000000000000000000000000000000000000000081526004016121ef9061333b565b60405180910390fd5b61220460008383611f35565b6001600360008473ffffffffffffffffffffffffffffffffffffffff1673ffffffffffffffffffffffffffffffffffffffff168152602001908152602001600020600082825461225491906135ef565b92505081905550816002600083815260200190815260200160002060006101000a81548173ffffffffffffffffffffffffffffffffffffffff021916908373ffffffffffffffffffffffffffffffffffffffff160217905550808273ffffffffffffffffffffffffffffffffffffffff16600073ffffffffffffffffffffffffffffffffffffffff167fddf252ad1be2c89b69c2b068fc378daa952ba7f163c4a11628f55a4df523b3ef60405160405180910390a45050565b828054612319906137ba565b90600052602060002090601f01602090048101928261233b5760008555612382565b82601f1061235457805160ff1916838001178555612382565b82800160010185558215612382579182015b82811115612381578251825591602001919060010190612366565b5b50905061238f9190612393565b5090565b5b808211156123ac576000816000905550600101612394565b5090565b60006123c36123be84613567565b613536565b9050828152602081018484840111156123db57600080fd5b6123e6848285613778565b509392505050565b6000813590506123fd81613933565b92915050565b6000813590506124128161394a565b92915050565b60008135905061242781613961565b92915050565b60008151905061243c81613961565b92915050565b600082601f83011261245357600080fd5b81356124638482602086016123b0565b91505092915050565b60008135905061247b81613978565b92915050565b60006020828403121561249357600080fd5b60006124a1848285016123ee565b91505092915050565b600080604083850312156124bd57600080fd5b60006124cb858286016123ee565b92505060206124dc858286016123ee565b9150509250929050565b6000806000606084860312156124fb57600080fd5b6000612509868287016123ee565b935050602061251a868287016123ee565b925050604061252b8682870161246c565b9150509250925092565b6000806000806080858703121561254b57600080fd5b6000612559878288016123ee565b945050602061256a878288016123ee565b935050604061257b8782880161246c565b925050606085013567ffffffffffffffff81111561259857600080fd5b6125a487828801612442565b91505092959194509250565b600080604083850312156125c357600080fd5b60006125d1858286016123ee565b92505060206125e285828601612403565b9150509250929050565b600080604083850312156125ff57600080fd5b600061260d858286016123ee565b925050602061261e8582860161246c565b9150509250929050565b60006020828403121561263a57600080fd5b600061264884828501612418565b91505092915050565b60006020828403121561266357600080fd5b60006126718482850161242d565b91505092915050565b60006020828403121561268c57600080fd5b600061269a8482850161246c565b91505092915050565b6126ac81613704565b82525050565b6126bb81613716565b82525050565b60006126cc826135ac565b6126d681856135c2565b93506126e6818560208601613787565b6126ef81613922565b840191505092915050565b6000612705826135b7565b61270f81856135d3565b935061271f818560208601613787565b61272881613922565b840191505092915050565b600061273e826135b7565b61274881856135e4565b9350612758818560208601613787565b80840191505092915050565b60008154612771816137ba565b61277b81866135e4565b9450600182166000811461279657600181146127a7576127da565b60ff198316865281860193506127da565b6127b085613597565b60005b838110156127d2578154818901526001820191506020810190506127b3565b838801955050505b50505092915050565b60006127f06032836135d3565b91507f4552433732313a207472616e7366657220746f206e6f6e20455243373231526560008301527f63656976657220696d706c656d656e74657200000000000000000000000000006020830152604082019050919050565b6000612856601c836135d3565b91507f4552433732313a20746f6b656e20616c7265616479206d696e746564000000006000830152602082019050919050565b6000612896600a836135e4565b91507f54484952445f574f5244000000000000000000000000000000000000000000006000830152600a82019050919050565b60006128d66024836135d3565b91507f4552433732313a207472616e7366657220746f20746865207a65726f2061646460008301527f72657373000000000000000000000000000000000000000000000000000000006020830152604082019050919050565b600061293c6019836135d3565b91507f4552433732313a20617070726f766520746f2063616c6c6572000000000000006000830152602082019050919050565b600061297c600b836135e4565b91507f5345434f4e445f574f52440000000000000000000000000000000000000000006000830152600b82019050919050565b60006129bc602c836135d3565b91507f4552433732313a206f70657261746f7220717565727920666f72206e6f6e657860008301527f697374656e7420746f6b656e00000000000000000000000000000000000000006020830152604082019050919050565b6000612a22600d836135e4565b91507f3c2f746578743e3c2f7376673e000000000000000000000000000000000000006000830152600d82019050919050565b6000612a626038836135d3565b91507f4552433732313a20617070726f76652063616c6c6572206973206e6f74206f7760008301527f6e6572206e6f7220617070726f76656420666f7220616c6c00000000000000006020830152604082019050919050565b6000612ac8602a836135d3565b91507f4552433732313a2062616c616e636520717565727920666f7220746865207a6560008301527f726f2061646472657373000000000000000000000000000000000000000000006020830152604082019050919050565b6000612b2e6029836135d3565b91507f4552433732313a206f776e657220717565727920666f72206e6f6e657869737460008301527f656e7420746f6b656e00000000000000000000000000000000000000000000006020830152604082019050919050565b6000612b94602e836135d3565b91507f45524337323155524953746f726167653a2055524920736574206f66206e6f6e60008301527f6578697374656e7420746f6b656e0000000000000000000000000000000000006020830152604082019050919050565b6000612bfa6002836135e4565b91507f227d0000000000000000000000000000000000000000000000000000000000006000830152600282019050919050565b6000612c3a6020836135d3565b91507f4552433732313a206d696e7420746f20746865207a65726f20616464726573736000830152602082019050919050565b6000612c7a6031836135d3565b91507f45524337323155524953746f726167653a2055524920717565727920666f722060008301527f6e6f6e6578697374656e7420746f6b656e0000000000000000000000000000006020830152604082019050919050565b6000612ce0602c836135d3565b91507f4552433732313a20617070726f76656420717565727920666f72206e6f6e657860008301527f697374656e7420746f6b656e00000000000000000000000000000000000000006020830152604082019050919050565b6000612d466029836135d3565b91507f4552433732313a207472616e73666572206f6620746f6b656e2074686174206960008301527f73206e6f74206f776e00000000000000000000000000000000000000000000006020830152604082019050919050565b6000612dac604e836135e4565b91507f222c20226465736372697074696f6e223a202246617368696f6e61626c65206e60008301527f6f6e73656e7365222c2022696d616765223a2022646174613a696d6167652f7360208301527f76672b786d6c3b6261736536342c0000000000000000000000000000000000006040830152604e82019050919050565b6000612e38602f836135d3565b91507f4552433732314d657461646174613a2055524920717565727920666f72206e6f60008301527f6e6578697374656e7420746f6b656e00000000000000000000000000000000006020830152604082019050919050565b6000612e9e600a836135e4565b91507f7b226e616d65223a2022000000000000000000000000000000000000000000006000830152600a82019050919050565b6000612ede6021836135d3565b91507f4552433732313a20617070726f76616c20746f2063757272656e74206f776e6560008301527f72000000000000000000000000000000000000000000000000000000000000006020830152604082019050919050565b6000612f44600a836135e4565b91507f46495253545f574f5244000000000000000000000000000000000000000000006000830152600a82019050919050565b6000612f84601d836135e4565b91507f646174613a6170706c69636174696f6e2f6a736f6e3b6261736536342c0000006000830152601d82019050919050565b6000612fc46031836135d3565b91507f4552433732313a207472616e736665722063616c6c6572206973206e6f74206f60008301527f776e6572206e6f7220617070726f7665640000000000000000000000000000006020830152604082019050919050565b600061302a6005836135e4565b91507f434f4c4f520000000000000000000000000000000000000000000000000000006000830152600582019050919050565b6130668161376e565b82525050565b60006130788284612733565b915081905092915050565b600061308f8285612733565b915061309b8284612733565b91508190509392505050565b60006130b38286612733565b91506130bf8285612733565b91506130cb8284612733565b9150819050949350505050565b60006130e48287612764565b91506130f08286612733565b91506130fc8285612764565b91506131088284612733565b915061311382612a15565b915081905095945050505050565b600061312c82612889565b91506131388284612733565b915081905092915050565b600061314e8261296f565b915061315a8284612733565b915081905092915050565b600061317082612e91565b915061317c8285612733565b915061318782612d9f565b91506131938284612733565b915061319e82612bed565b91508190509392505050565b60006131b582612f37565b91506131c18284612733565b915081905092915050565b60006131d782612f77565b91506131e38284612733565b915081905092915050565b60006131f98261301d565b91506132058284612733565b915081905092915050565b600060208201905061322560008301846126a3565b92915050565b600060808201905061324060008301876126a3565b61324d60208301866126a3565b61325a604083018561305d565b818103606083015261326c81846126c1565b905095945050505050565b600060408201905061328c60008301856126a3565b613299602083018461305d565b9392505050565b60006020820190506132b560008301846126b2565b92915050565b600060208201905081810360008301526132d581846126fa565b905092915050565b600060608201905081810360008301526132f781866126fa565b9050613306602083018561305d565b61331360408301846126a3565b949350505050565b60006020820190508181036000830152613334816127e3565b9050919050565b6000602082019050818103600083015261335481612849565b9050919050565b60006020820190508181036000830152613374816128c9565b9050919050565b600060208201905081810360008301526133948161292f565b9050919050565b600060208201905081810360008301526133b4816129af565b9050919050565b600060208201905081810360008301526133d481612a55565b9050919050565b600060208201905081810360008301526133f481612abb565b9050919050565b6000602082019050818103600083015261341481612b21565b9050919050565b6000602082019050818103600083015261343481612b87565b9050919050565b6000602082019050818103600083015261345481612c2d565b9050919050565b6000602082019050818103600083015261347481612c6d565b9050919050565b6000602082019050818103600083015261349481612cd3565b9050919050565b600060208201905081810360008301526134b481612d39565b9050919050565b600060208201905081810360008301526134d481612e2b565b9050919050565b600060208201905081810360008301526134f481612ed1565b9050919050565b6000602082019050818103600083015261351481612fb7565b9050919050565b6000602082019050613530600083018461305d565b92915050565b6000604051905081810181811067ffffffffffffffff8211171561355d5761355c6138f3565b5b8060405250919050565b600067ffffffffffffffff821115613582576135816138f3565b5b601f19601f8301169050602081019050919050565b60008190508160005260206000209050919050565b600081519050919050565b600081519050919050565b600082825260208201905092915050565b600082825260208201905092915050565b600081905092915050565b60006135fa8261376e565b91506136058361376e565b9250827fffffffffffffffffffffffffffffffffffffffffffffffffffffffffffffffff0382111561363a57613639613866565b5b828201905092915050565b60006136508261376e565b915061365b8361376e565b92508261366b5761366a613895565b5b828204905092915050565b60006136818261376e565b915061368c8361376e565b9250817fffffffffffffffffffffffffffffffffffffffffffffffffffffffffffffffff04831182151516156136c5576136c4613866565b5b828202905092915050565b60006136db8261376e565b91506136e68361376e565b9250828210156136f9576136f8613866565b5b828203905092915050565b600061370f8261374e565b9050919050565b60008115159050919050565b60007fffffffff0000000000000000000000000000000000000000000000000000000082169050919050565b600073ffffffffffffffffffffffffffffffffffffffff82169050919050565b6000819050919050565b82818337600083830152505050565b60005b838110156137a557808201518184015260208101905061378a565b838111156137b4576000848401525b50505050565b600060028204905060018216806137d257607f821691505b602082108114156137e6576137e56138c4565b5b50919050565b60006137f78261376e565b91507fffffffffffffffffffffffffffffffffffffffffffffffffffffffffffffffff82141561382a57613829613866565b5b600182019050919050565b60006138408261376e565b915061384b8361376e565b92508261385b5761385a613895565b5b828206905092915050565b7f4e487b7100000000000000000000000000000000000000000000000000000000600052601160045260246000fd5b7f4e487b7100000000000000000000000000000000000000000000000000000000600052601260045260246000fd5b7f4e487b7100000000000000000000000000000000000000000000000000000000600052602260045260246000fd5b7f4e487b7100000000000000000000000000000000000000000000000000000000600052604160045260246000fd5b6000601f19601f8301169050919050565b61393c81613704565b811461394757600080fd5b50565b61395381613716565b811461395e57600080fd5b50565b61396a81613722565b811461397557600080fd5b50565b6139818161376e565b811461398c57600080fd5b5056fe416e204e465420772f20494420257320686173206265656e206d696e74656420746f2025734142434445464748494a4b4c4d4e4f505152535455565758595a6162636465666768696a6b6c6d6e6f707172737475767778797a303132333435363738392b2fa26469706673582212207cef8cc0a1ee09282fe128fa0981878aae4cd886650d17a7d54ce6bd7001635064736f6c634300080000333c73766720786d6c6e733d27687474703a2f2f7777772e77332e6f72672f323030302f73766727207072657365727665417370656374526174696f3d27784d696e594d696e206d656574272076696577426f783d273020302033353020333530273e3c7374796c653e2e62617365207b2066696c6c3a20626c61636b3b20666f6e742d66616d696c793a2073657269663b20666f6e742d73697a653a20323470783b207d3c2f7374796c653e3c726563742077696474683d273130302527206865696768743d2731303025272066696c6c3d27272f3e3c7465787420783d273530252720793d273530252720636c6173733d27626173652720646f6d696e616e742d626173656c696e653d276d6964646c652720746578742d616e63686f723d276d6964646c65273e",
    "linkReferences": {},
    "deployedLinkReferences": {}
}